:020000040800F2
:100000000009002001010008C1030008A502000842
:10001000BD0300086D0100081D0800080000000075
:1000200000000000000000000000000015050008AE
:100030007101000800000000D10400081906000842
:100040001B0100081B0100081B0100081B01000820
:100050001B0100081B0100081B0100081B01000810
:100060001B0100081B0100081B0100081B01000800
:100070001B0100081B0100081B0100081B010008F0
:100080001B0100081B0100081B0100081B010008E0
:100090001B0100081B0100081B0100081B010008D0
:1000A0001B0100081B0100081B0100081B010008C0
:1000B0007D0600081B0100081B0100081B01000849
:1000C0001B0100081B0100081B0100081B010008A0
:1000D0001B0100081B0100081B0100081B01000890
:1000E0001B0100081B0100081B010008DFF80CD0F1
:1000F00000F02AF800480047250A000800090020FF
:100100000648804706480047FEE7FEE7FEE7FEE7B1
:10011000FEE7FEE7FEE7FEE7FEE7FEE71D06000856
:10012000ED000008D2B201E000F8012B491EFBD21D
:1001300070470022F6E710B513460A4604461946F2
:10014000FFF7F0FF204610BD064C074D06E0E068C3
:1001500040F0010394E8070098471034AC42F6D30E
:10016000FFF7C8FF484700086847000800BFFEE7E0
:1001700070472DE9F04102460025002600200023AB
:100180000024002791F803C00CF00F0591F803C07C
:100190000CF0100CBCF1000F03D091F802C04CEA37
:1001A000050591F800C0BCF1000F31D014680020A3
:1001B0002BE04FF0010C0CFA00F3B1F800C00CEA90
:1001C00003069E4220D183004FF00F0C0CFA03F778
:1001D000BC4305FA03FC4CEA040491F803C0BCF1EB
:1001E000280F06D14FF0010C0CFA00FCC2F814C025
:1001F0000AE091F803C0BCF1480F05D14FF0010CA3
:100200000CFA00FCC2F810C0401C0828D1D31460BE
:10021000B1F800C0BCF1FF0F34DD546800202EE0BF
:1002200000F1080C4FF0010808FA0CF3B1F800C017
:100230000CEA03069E4221D183004FF00F0C0CFA0A
:1002400003F7BC4305FA03FC4CEA040491F803C02D
:10025000BCF1280F05D100F1080C08FA0CF8C2F81F
:10026000148091F803C0BCF1480F07D100F1080CCD
:100270004FF0010808FA0CF8C2F81080401C08285A
:10028000CED35460BDE8F0810246002093680B4055
:100290000BB1012000E0002070470AB1016100E0CD
:1002A0004161704700BFFEE708B50121082000F05A
:1002B00021F94FF44060ADF8000048208DF80300AC
:1002C00003208DF8020069460148FFF752FF08BD80
:1002D000000C014010B54FF400613648FFF7D4FF21
:1002E00008B1012000E00020334948704FF48061DC
:1002F0003048FFF7C9FF08B1012100E000212E4876
:100300004172002053E02C4911F8301021B101292D
:1003100011D0022948D118E0274901EBC0014978E2
:1003200041B90021244A02EBC00251600121224A56
:1003300002F8301038E0204901EBC001497819B9C2
:1003400002211D4A02F830102EE01B4901EBC001CA
:10035000497801290FD1184901EBC00149681E29CC
:1003600004D20121144A02EBC00291700021124A0A
:1003700002F8301017E0104901EBC0014968491C30
:100380000D4A02EBC00251600B4901EBC001496804
:100390001E2908D90121084A02EBC002D1700021B0
:1003A000054A02F8301000BF00BF411CC8B2022845
:1003B000A9DB10BD000C0140EC04002000BFFEE7EB
:1003C0007047000070B5002100230F22C47804B3E9
:1003D000154C246804F4E064C4F5E064210AC1F11A
:1003E0000403CA40447804FA03F18478144021439A
:1003F00009010E4C0678A155047804F01F0501246C
:10040000AC4005786D11AD0005F1E025C5F800415F
:1004100009E0047804F01F050124AC40044D06787F
:10042000761145F8264070BD0CED00E000E400E0D8
:1004300080E100E002490143024A11607047000078
:100440000000FA050CED00E008B50121082000F0DD
:1004500051F810208DF8030003208DF802004FF4AE
:100460008070ADF8000069461248FFF782FE4FF435
:100470000070ADF8000069460E48FFF77AFE0E4B9B
:100480000E4A0F490F4800F039FD0E4801F05CFCA0
:1004900000210C4801F06AFC0A4800F0C9FA0A4938
:1004A000084800F0D7FC074890F87E00074908701C
:1004B00008BD0000000C0140251800084B1E000874
:1004C000804500084C040020EB3600082600002080
:1004D0007047000029B1064AD2690243044BDA6131
:1004E00004E0034AD2698243014BDA61704700009D
:1004F0000010024029B1064A92690243044B9A61F6
:1005000004E0034A92698243014B9A6170470000FC
:1005100000100240704710B500F002F810BD000056
:100520000CB50020019000903348006840F4803002
:100530003149086000BF3048006800F40030009086
:100540000198401C0190009818B90198B0F5A06F6F
:10055000F1D12948006800F4003010B1012000906A
:1005600001E0002000900098012843D12348006852
:1005700040F01000214908600846006820F00300A0
:1005800008600846006840F0020008601A484068A9
:10059000194948600846406848600846406840F489
:1005A000806048600846406820F47C104860084637
:1005B000406840F4E81048600846006840F08070E9
:1005C000086000BF0C48006800F000700028F9D0F7
:1005D0000948406820F00300074948600846406821
:1005E00040F00200486000BF0348406800F00C0083
:1005F0000828F9D10CBD0000001002400020024084
:1006000010B5FFF721FFFFF74FFE40F2E73140F250
:10061000CF2000F041F810BD7047000010B513481E
:10062000006840F001001149086008464068104920
:1006300008400E494860084600680E4908400B49CA
:1006400008600846006820F480200860084640687A
:1006500020F4FE0048604FF41F008860FFF75BFF46
:100660004FF000600449086010BD00000010024017
:100670000000FFF8FFFFF6FE08ED00E010B50121D5
:10068000880700F058F8012805D1FFF723FE012163
:10069000880700F041F810BD7FB505460C464FF0C5
:1006A000804000F062F801210846FFF713FF0020A8
:1006B000ADF80A00A8B2ADF80400A0B2ADF8080089
:1006C0000020ADF8060001A94FF0804000F054F87A
:1006D0004FF4A060FFF7AEFE1C208DF80000012053
:1006E0008DF8030002208DF8010001208DF8020032
:1006F0006846FFF767FE0121880700F00AF801222B
:100700001146900700F028F80121880700F007F84B
:100710007FBDCA4302827047CA430282704721B13B
:10072000028842F00102028004E002884FF6FE7364
:100730001A400280704730B5024600200023002492
:10074000158A05EA0103958905EA010413B10CB184
:10075000012000E0002030BD1AB183890B43838162
:1007600002E083898B438381704701894FF6F872D9
:100770001140018170470000002202881D4B984201
:100780000ED01D4B98420BD0B0F1804F08D01B4BC0
:10079000984205D01A4B984202D01A4B984204D185
:1007A0004FF68F731A404B881A43174B984207D065
:1007B000164B984204D04FF6FF431A40CB881A4399
:1007C00002808B8883850B8803850A4B98420BD067
:1007D000094B984208D00E4B984205D00D4B9842D9
:1007E00002D00D4B984201D10B7A038601238382FC
:1007F00070470000002C014000340140000400401C
:1008000000080040000C00400010004000140040B0
:1008100000400140004401400048014000BFFEE7A5
:1008200002E008C8121F08C1002AFAD170477047B9
:10083000002001E001C1121F002AFBD1704700B562
:10084000034603E04FF47A7000F006F81800A3F1B5
:100850000103F7D100BD00000C4909680C4AB1FB47
:10086000F2F141434FF0E0225161002191610521F5
:10087000116100BF4FF0E021096901F480310029C6
:10088000F8D004214FF0E0221161704700000020F1
:1008900040420F0010B5044600224C21204601F0D2
:1008A000CDFC10BD10B5044600224D21204601F0BC
:1008B000C5FC10BD10B504462068427B2D212046A2
:1008C00001F0BCFC10BD10B5044601224C212046AD
:1008D00001F0B4FC01224D21204601F0AFFC20467E
:1008E000FFF7E8FF10BD10B50446204600F01BF8E6
:1008F0002046FFF7DFFF204600F00AF8204600F010
:1009000012F82046FFF7D6FF2046FFF7C3FF10BDC1
:1009100010B5044601224C21204601F08FFC2046F0
:10092000FFF7C8FF10BD10B5044601224D21204637
:1009300001F084FC10BD10B5044694F8250040B1C8
:100940002046FFF7F0FF2046FFF7B4FF2046FFF7F1
:10095000DFFF2046FFF7E7FF2046FFF7A3FF204613
:10096000FFF7A8FF2046FFF795FF012084F8250038
:1009700010BD10B504462046FFF794FF2046FFF750
:1009800099FF2046FFF7C4FF2046FFF7CCFF204623
:10099000FFF790FF002084F8250010BD70B50546D4
:1009A0000C461CB12846FFF7BEFF02E02846FFF7C1
:1009B00079FF2846FFF77EFF2846FFF7A9FF284664
:1009C000FFF768FF70BD70B505460C4604F0800166
:1009D0002846FFF7E3FF04F040012846FFF7DEFF5B
:1009E00004F020012846FFF7D9FF04F01001284643
:1009F000FFF7D4FF04F008012846FFF7CFFF04F00B
:100A000004012846FFF7CAFF04F002012846FFF759
:100A1000C5FF04F001012846FFF7C0FF2846FFF795
:100A200062FF70BDFFF7ECFD01E001F02FFCFCE779
:100A300070B504462068057C94F838004543ED0005
:100A40002946606BFFF775FB70BD2DE9F8438046C2
:100A50000E4614461F46089D601980B20090F0199A
:100A600083B222463146404600F0C6F908B9BDE8D7
:100A7000F8830BE000203B4622463146009040467A
:100A800000F05CF8601C84B2681E85B2002DF1D1C4
:100A900000BFECE72DE9F84307460D4616461C4615
:100AA000DDF820803019401C80B200902819401CCD
:100AB00083B2301B82B2281B81B2384600F09CF909
:100AC00008B9BDE8F8832346324629463846CDF8B2
:100AD000008000F006FB00BFF3E72DE9F04104467B
:100AE0000D4616461F467020005D30B101280AD021
:100AF00002280ED0032818D111E02046E16D884766
:100B0000304486B211E02046E16D8847281A85B24C
:100B10000BE02046E16D8847301A86B205E020469A
:100B2000E16D8847284485B200BF00BF3B4632468E
:100B30002946204600F0DFFDBDE8F0817FB582B098
:100B400004460A9D94F88C00002863D0BDF8140078
:100B500000285FD0BDF8140001281CDD022D0CD147
:100B6000BDF80C00BDF81410401A80B20390BDF817
:100B70000C00401C80B203900DE0032D0BD1BDF89A
:100B80001000BDF81410401A80B20490BDF8100097
:100B9000401C80B2049005F00105C5B9B4F84C00C2
:100BA000BDF81010884201DD06B070BDB4F84E00EB
:100BB000BDF81010884200DCF6E7B4F84A30B4F80B
:100BC000482005A903A800F066FAC0B9ECE7B4F81C
:100BD0004800BDF80C10884200DDE5E7B4F84A0093
:100BE000BDF80C10884200DCDEE7B4F84E30B4F8F3
:100BF0004C2005A904A800F04EFA00B9D4E70095EE
:100C0000206BBDF81430BDF81020BDF80C108668BC
:100C10002046B04700BFC7E72DE9FF4F85B00D461E
:100C200016461F46DDE912A406EB0A0080B20090CA
:100C3000E81983B232462946059800F0DDF810B96C
:100C400009B0BDE8F08F0495049D281980B2049086
:100C50000396039E301980B203900295029DE81915
:100C600080B202900298001B80B202900298401E4F
:100C700080B20290B3460BEB0A001FFA80FBABEB8D
:100C800004001FFA80FBABF101001FFA80FB022079
:100C900023460090DDE903210598FFF7FBFE0120C4
:100CA00023460090DDE902120598FFF7F3FE0420C9
:100CB00023465A460090DDE90410FFF7EBFE0820BA
:100CC00023465A46009002990598FFF7E3FEB8467E
:100CD000A8EB04001FFA80F8A8EB04001FFA80F8C4
:100CE0000498401C80B204900398401C80B203908A
:100CF000B8F1030F15DBA8F102001FFA80F8601CA1
:100D000080B2434632460090DDE90410FFF79DFEB5
:100D1000601C80B243465A460090DDE90410FFF79C
:100D200094FED146A9EB04001FFA80F9A9EB040058
:100D30001FFA80F9B9F1030F0BDBA9F102001FFACA
:100D400080F93B46CDF800902946039A0598FFF7B5
:100D50007CFE00BF74E700002DE9F04104460D461B
:100D600016461F46044860603B46324629462046E8
:100D700000F02AFBBDE8F081EB1D0008F8B5044641
:100D80000D4616461F4601203B4632462946009036
:100D90002046FFF7D3FEF8BD70B504460E46314637
:100DA000204600F0C9FC05460DB9002070BD29465B
:100DB000204600F016FD7A20015D04F1600000F08D
:100DC0004EFB84F890007B20015D04F1600000F090
:100DD00046FB7C20015D04F1600000F040FBE5E78C
:100DE00070B504460D46034860602946204600F071
:100DF00099FE70BDEB1D00082DE9F04104460D463B
:100E000016461F46DDF81880B4F84E10B4F84C00B2
:100E10004346324600F048FD10B90020BDE8F0819D
:100E2000B4F84A10B4F848003B462A4600F03CFDAE
:100E3000F4E710B50446204600F03EFE204600F0E0
:100E40008CFF10BD80F89210032902DB012280F88C
:100E50009220704770B504460D46A06DA84208D098
:100E6000A565294604F1740000F0B6FD204600F0A7
:100E700067F870BD0149C16570470000591400084A
:100E800010B50446002030342084A0844FF6FF7053
:100E90006084E08454F8300941682046884710BDDA
:100EA0002DE9F04104460D4616461F46DDF8188030
:100EB0000020A065E762656384F8386084F8390033
:100EC00000216D2001550020743460776076012088
:100ED000A077E07744F8448C54F8440C743C0168E3
:100EE000204688472046FFF7CBFF2046FFF7C2FF8A
:100EF000002170200155BDE8F08100002DE9FC4182
:100F000007460C4615461E462B460A4A0A493846ED
:100F1000009600F035FF01A800F056FD8046074B13
:100F200000949DF8042041463846FFF7B9FFBDE81C
:100F3000FC8100009D1F0008DD200008D918000872
:100F4000816D01B970478121095C80F88E10822182
:100F5000095C80F88F1090F88D1099B390F88D107F
:100F6000012914D190F98E2090F983108A4203DA76
:100F70008321095C80F88E1090F98F2090F98410FD
:100F80008A421FDD8421095C80F88F101AE090F9F5
:100F90007E2090F98010114490F98E20914207DD57
:100FA0007E210A5C8021095C114449B280F88E10D0
:100FB00090F98F2090F980108A4203DD8021095C2E
:100FC00080F88F1000BFBDE710B523B1012B05D00D
:100FD000022B09D105E04418A0B208E0841AA0B29F
:100FE00005E0441AA0B202E08418A0B200BF00BF1E
:100FF00010BD10B523B1012B05D0022B09D105E09E
:101000008418A0B208E04418A0B205E0841AA0B287
:1010100002E0441AA0B200BF00BF10BD38B50446BC
:101020005034E08800906388A28834F85019204634
:10103000FFF7E2FE18B9002084F88C002AE00120B6
:1010400084F88C00B4F84800B4F85010884203DAF1
:10105000B4F85000A4F84800B4F84A00B4F85210AC
:10106000884203DDB4F85200A4F84A00B4F84C00FA
:10107000B4F85410884203DAB4F85400A4F84C00D1
:10108000B4F84E00B4F85610884203DDB4F85600A8
:10109000A4F84E0038BD70B505460E4614462988A2
:1010A0000A463088104482B2914206DD994203DA42
:1010B0001A46501E82B200E02146994201DB002010
:1010C00070BDA24201DC0020FAE7A14200DA21460D
:1010D0009A4200DD1A462980501A82B232800120DD
:1010E000EEE72DE9FF4F83B08A4617461C46DDF830
:1010F00040B00125281B05B2012002900026301BBC
:1011000006B2700006B24FF00008A14653464A46A8
:101110004146CDE9007B039800F023F81CE0002D48
:1011200007DBA9F101001FFA80F9B01C06B2A8196B
:1011300005B208F101001FFA80F80298801C00B285
:1011400002900298284405B253464A464146CDE9EA
:10115000007B039800F005F8C845E0DB07B0BDE868
:10116000F08F2DE9F04781460C4615461E46DDE915
:10117000087808F0010088B1681C83B2781B82B23D
:10118000301981B24846FFF7F9FD601C83B2381B65
:1011900082B2701981B24846FFF7F0FD08F00200F4
:1011A00088B1681C83B2781B82B2301B81B248467A
:1011B000FFF7E4FD601C83B2381B82B2701B81B262
:1011C0004846FFF7DBFD08F0080078B1681C83B2E1
:1011D000301981B23A464846FFF7D0FD601C83B211
:1011E000701981B23A464846FFF7C8FD08F004007E
:1011F00078B1681C83B2301B81B23A464846FFF78B
:10120000BDFD601C83B2701B81B23A464846FFF7B1
:10121000B5FDBDE8F0872DE9F84304460E461546B6
:101220001F46DDF82080E08F281A85B2CDF80080B7
:101230003B462A4631462046D4F82CC0E047BDE85C
:10124000F8832DE9F84305460E4691461F46DDF822
:101250002080B5F84440A01B84B208F0010010B90A
:10126000E01B84B201E0601E84B23B464A46214640
:101270002846CDF80080FFF7CEFFBDE8F8832DE9C2
:10128000F84304460D4616461F46DDF820803B46CF
:10129000324629462046CDF80080FFF7BCFFBDE866
:1012A000F8832DE9F84F06460F46904699460A9D69
:1012B000BA46B6F84640A4EB080084B2601E84B279
:1012C000681CC5B2022D05D1A4EB090084B2601CD4
:1012D00084B200254B465246214630460095FFF722
:1012E0009AFFBDE8F88F2DE9F84F064689469246E9
:1012F0001F46DDF82880B6F84650A5EB0A0085B2F7
:10130000B6F84440A4EB090084B2B8F1000F04D150
:10131000681E85B2E01B84B206E0B8F1010F03D16C
:10132000601E84B2E81B85B23B462A462146304601
:10133000CDF80080FFF76FFFBDE8F88F2DE9F84F7B
:1013400005460E4617469846DDF82890BA46B5F889
:101350004440A01B84B2B9F1000F09D1601E84B2D1
:10136000A4EB080084B2601C84B24FF0010903E0D2
:10137000601E84B24FF0000943462246514628467B
:10138000CDF80090FFF747FFBDE8F88F2DE9F8434F
:101390000546894616461F46DDF82080B5F84640CA
:1013A000A01B84B208F0010010B1E01B84B201E080
:1013B000601E84B23B46224649462846CDF800804E
:1013C000FFF729FFBDE8F8832DE9F04706460F46F1
:1013D00090469946304600F055FF4FF0000A00BF96
:1013E00099F8001030467268904705464FF6FF7135
:1013F0008D4200D12CE009F101094FF6FE708542C3
:10140000EED02B46424639463046FFF766FB04468F
:101410007020805D30B1012807D002280AD003284F
:1014200010D10AE0381987B20CE008EB04001FFA6B
:1014300080F807E0381B87B204E0A8EB04001FFA2D
:1014400080F800BF00BF0AEB04001FFA80FAC7E76C
:1014500000BF5046BDE8F087014600207047F0B558
:1014600007460C462146384600F00BF845B20126E7
:10147000601EC4B206FA04F046B2A81B45B2284664
:10148000F0BD70B502460C46117B156828780841FE
:101490000B461D19EBB2082B0EDB08256E1AF5B2B0
:1014A0001668761C166016683678AE400643F0B2B1
:1014B000A3F10806F3B200BF0125A5406D1E284028
:1014C000137370BD2DE9F34F85B0054605F1600437
:1014D0002846069900F085F995F96B607A20415D00
:1014E0002046FFF7BCFF02907B20415D2046FFF7BE
:1014F000B6FF83467C20415D2046FFF7B0FF019098
:1015000094F90A00002871DD237C06EB0B014942A7
:101510004AB2A0880299FFF757FDA080237C06EB12
:101520000B0149424AB2E0880299FFF762FDE08070
:10153000A788B4F80680B946C246207C30B101289D
:101540000ED002281AD0032842D12EE094F90A00C6
:1015500048441FFA80F90AEB06001FFA80FA37E0C8
:10156000B81B87B2781C87B209F101001FFA80F915
:1015700094F90A0050441FFA80FA29E094F90A000D
:10158000381A87B2781C87B209F101001FFA80F976
:10159000A8EB06001FFA80F808F101001FFA80F896
:1015A0000AF101001FFA80FA12E009EB06001FFAA7
:1015B00080F994F90A00A8EB00001FFA80F808F1FE
:1015C00001001FFA80F80AF101001FFA80FA00BF3B
:1015D00000BF4B46424639462846CDF800A0FFF7EB
:1015E0000BFC20B9019807B0BDE8F08F29E000207E
:1015F0002072607200BF7620415D2046FFF741FFF8
:1016000004907720415D2046FFF73BFF039000BF29
:1016100000222846049900F016F801222846039972
:1016200000F011F801212046FFF72BFF0028EFD131
:1016300094F90900B042DEDB00BF00BFA07B85F853
:1016400092000198CFE72DE9FF5F80468A469346D6
:1016500008F160045546277A94F8099000BFA67AED
:10166000F01BC6B20396B54200DA0395A08802903B
:10167000E0880190237C4FFA89F279B20298FFF753
:10168000A3FC0290237C4FFA89F279B20198FFF70C
:10169000B0FC0190BBF1000F0BD0A07B88F892004A
:1016A000207C00904046DDE90213019AFFF746FADC
:1016B0000CE0607B50B9E07B88F89200207C0090C1
:1016C0004046DDE90213019AFFF738FAB54200DA25
:1016D00007E0A81BC5B2002709F1010000F0FF09CF
:1016E000BDE700BF7819C7B278B220724FFA89F00F
:1016F0006072BDE8FF9F2DE9F04704460D4616468F
:101700001F464FF0000964200553662006533946F2
:10171000204600F011F88046B8F1000F05D0414690
:101720002046FFF7CFFE1FFA80F94846BDE8F08754
:1017300002460A44107870472DE9F04107460D46ED
:10174000BC6D1734FF2D18DC612D03DB8820C05BD6
:10175000044404E0412D02DB8620C05B044400BF4A
:10176000607800B908E02078A84202D1A01CBDE84A
:10177000F08160780444F3E725E08A20C05B0444EC
:10178000A04600BF0021404600F01FF8044402219B
:10179000404600F01AF8064608F10408AE42F1DBB4
:1017A00000BF26784FF6FF7000EA062660780643F1
:1017B00006B906E0AE4201D1E01CD8E7A0780444A7
:1017C000EFE700BF00BF0020D1E702460A441078CF
:1017D000521C4FF6FF7303EA00201378034498B2BB
:1017E000704770B505460E4605F16004266000207E
:1017F00020737820415D2046FFF743FE40B2A0727F
:101800007920415D2046FFF73CFE40B2E07295F83A
:101810009200A073A07B08B9012000E00020E073D3
:1018200070BD00002DE9F04106460D4614461F46E6
:101830002B2D12D004DC292D07D02A2D2BD108E026
:101840004C2D0CD04D2D26D117E02046FEF7F7FF8A
:1018500024E00A20FFF700F820E000BF1EE02CB1D2
:10186000012211020F48FEF718FD05E000224FF497
:1018700080710C48FEF711FD10E02CB101225102DD
:101880000848FEF70AFD05E000224FF40071054804
:10189000FEF703FD02E00020BDE8F08100BF01205B
:1018A000FAE70000000C014010B504468A4209DA4C
:1018B000A34201DD012010BD9A4201DD0120FAE7BB
:1018C0000020F8E7A34205DD9A4201DD0120F2E79E
:1018D0000020F0E70020EEE72DE9F04704468946B6
:1018E000DDF82080D1B201F00701012606FA01FAE5
:1018F0000AF0FF060027BC4694F892A0BAF1010F47
:1019000000DC374694F892A0BAF1010F00D0B4463B
:10191000154625F00705D4F800A09AF810A00AFB98
:1019200005FA1FFA8AF5606B28444844B8F1000FA5
:1019300014D100BF90F800A04AEA070A80F800A07E
:1019400090F800A08AEA0C0A80F800A0401CA3F1DD
:10195000010A1FFA8AF3002BECD132E000BF90F8A5
:1019600000A04AEA070A80F800A090F800A08AEADE
:101970000C0A80F800A001F1010A0AF0FF0101F051
:101980000701A3F1010A1FFA8AF381B9B4F83AA05A
:10199000504494F892A0BAF1010F00DC012794F8AA
:1019A00092A0BAF1010F0AD04FF0010C07E04FEA04
:1019B000476A4FEA1A674FEA4C6A4FEA1A6C002BE3
:1019C000CDD1BDE8F087000001460820087001482D
:1019D000704700004C00002070B504460D46002101
:1019E0002846FFF7A5FE207001212846FFF7A0FE3C
:1019F000607002212846FFF79BFEA0700321284655
:101A0000FFF796FEE07004212846FFF791FE207153
:101A100005212846FFF78CFE607106212846FFF756
:101A200087FEA07107212846FFF782FEE07108219A
:101A30002846FFF77DFE207209212846FFF778FE31
:101A400040B260720A212846FFF772FE40B2A072CF
:101A50000B212846FFF76CFE40B2E0720C212846AD
:101A6000FFF766FE40B220730D212846FFF760FEA7
:101A700040B260730E212846FFF75AFE40B2A073B1
:101A80000F212846FFF754FE40B2E073102128468C
:101A9000FFF74EFE40B2207411212846FFF795FE55
:101AA000608213212846FFF790FEA0821521284668
:101AB000FFF78BFEE08270BD2DE9F0410446002562
:101AC00094F8387094F83960206890F8118000BF5D
:101AD00032462946204600F00AF8681CC5B2701C40
:101AE000C6B2BD4201DA4645F2DBBDE8F0812DE920
:101AF000F84305460E469146286890F81080344613
:101B00006F6B04FB08F084B24FF6FF7000EAC40468
:101B1000274443464A4600212846009700F0FBF838
:101B2000BDE8F8832DE9F04704460F466FF03F0803
:101B300000216A200155204600F0A4FB0025A9469B
:101B400000BF397820466268904706464FF6FF701E
:101B5000864200D113E07F1C4FF6FE708642F0D023
:101B600031462046FFF718F91FFA80F908F14000C6
:101B700008B994F9908005EB090085B2E1E700BF50
:101B80006A20005D80B1A5EB090085B294F96A0076
:101B9000284485B294F99000284485B2B8F1000F2A
:101BA00002DD05EB080085B22846BDE8F08710B5D8
:101BB0001A3050F81A2C817F4FF6FF7303EAC101E7
:101BC0004184117C03EAC1010184C17F03EAC101A0
:101BD0008184817FC37F1A380B44547CA34204DD87
:101BE000537C90F839401B1B99B24FF6FF7303EA00
:101BF000C10130F83E3F43804388838083880B4493
:101C00008380938AC380D38A03813E3810BD10B588
:101C100004462046FFF7CBFF10BD10B50446204612
:101C2000FFF7C5FF2068808AA4F846002068C08AB4
:101C3000A4F8440010BD10B504462046FFF7B7FFD6
:101C400010BD10B504462046FFF7B1FF2068808A1A
:101C5000A4F846002068C08AA4F8440010BD10B55E
:101C60000446002040342081A08860812088A08123
:101C70006088E081403C2046FFF7D0F910BD10B5E8
:101C8000044634F8400F2081608860810020A081E4
:101C9000E088E081403C2046FFF7C0F910BD10B558
:101CA000044600204234E08060882081002060816A
:101CB000A08834F84219884205DB4234A088218884
:101CC000401A6081423C4034E0882188401AE0811B
:101CD000403C2046FFF7A2F910BD10B50446002095
:101CE0004234E080608834F84219884205DB42348F
:101CF00060882188401AE080423C4034A0882188D6
:101D0000401A60810020A081E088E081403C2046AC
:101D1000FFF784F910BD2DE9FC4104460D46164637
:101D20001F46DDF820808DF805508DF806608DF88F
:101D30000470CDF800806B4601220F212046D4F8B4
:101D400008C0E047BDE8FC8170B5044600231A4690
:101D50000A212046A568A84770BD70B50446002337
:101D60001A4610212046A568A84770BD70B50446E4
:101D70000D4600232A460B212046A668B04770BDB9
:101D80002DE9F04104460D4617461E46DDF8188041
:101D9000204600F00BF8A560E7602661C4F81480C7
:101DA000204600F019F8BDE8F08100000021016034
:101DB00008498160C16001614161002180F8231000
:101DC00080F826108161FF2180F8241080F8281007
:101DD000704700003522000870B5044600231A46FB
:101DE00009212046A568A84770BD024609B10A2905
:101DF00002D14FF6FF7070470846FCE770B5044605
:101E000000231A46192120462569A84770BD13B53D
:101E1000044601AA0121204600F001F81CBD2DE96D
:101E2000F04104460D46164633462A461721204601
:101E30002769B847BDE8F08170B5044600231A460B
:101E4000182120462569A84770BD2DE9F0410646B6
:101E50000F4614469846182F1BD004DC142F13D0BD
:101E6000172F23D104E0192F1CD0202F1ED10FE0F3
:101E7000454606E029783046FEF7A5FD6D1C601E3C
:101E8000C4B2002CF6DC14E03046FEF71CFD10E076
:101E90000FE03046FEF74FFD96F824103046FEF76F
:101EA00092FD06E03046FEF764FD02E00020BDE84A
:101EB000F08100BF0120FAE770B5044600231A46FE
:101EC00019212046E568A84770BD70B504460D4647
:101ED00000232A4616212046E668B04770BD70B53B
:101EE00004460D4600232A4615212046E668B047E1
:101EF00070BD2DE9F04104460D46164633462A468C
:101F000017212046E768B847BDE8F081F8B50546D7
:101F10000C4600BF2678641C182E21D006DC152E36
:101F200009D0162E08D0172E2CD110E0192E18D05B
:101F3000FE2E27D11CE000BF2078009000239DF8E2
:101F4000002031462846EF68B847641C1BE0207823
:101F500000906A4601212846FFF7CBFF641C12E07F
:101F600000BF00231A4631462846EF68B8470AE00A
:101F7000207800909DF800202921284600F05EF985
:101F8000641C00E0F8BDC5E770B5044600231A469E
:101F900018212046E568A84770BD00002DE9F041F2
:101FA00004460F4615469846A7F11400062858D255
:101FB000DFE800F03903181D494D2C48007810B1B6
:101FC0002046FFF71BFF2046FFF736FF0021204683
:101FD000FFF71DFF29462046FFF719FF012023497F
:101FE000087040E029462046FFF711FF3BE01F48FC
:101FF000007810B12046FFF701FF464608E0324660
:102000001821204600F027F9A5F11800C5B21836AE
:10201000182DF4DC32462946204600F01CF9002039
:10202000124908701FE094F82400FF2802D178209C
:1020300084F8240043462A4639462046D4F810C086
:10204000E047BDE8F0810020084908700BE0074830
:10205000007810B12046FFF7D1FE00200349087038
:1020600001E00020EDE700BF0120EAE714000020B6
:1020700070B5044600231A46282120466569A84702
:1020800000231A4614212046E568A84701224B2167
:10209000204600F0D3F8206802792921204600F07C
:1020A000CDF800224B21204600F0C8F820680279C4
:1020B0002921204600F0C2F801224B21204600F0E1
:1020C000BDF8206842792921204600F0B7F870BD9C
:1020D00001600268927C80F8222070472DE9F0416F
:1020E00005460C4616461F463B46324621462846C4
:1020F00000F01EF810B10120BDE8F081092C09D0D4
:102100000A2C0CD12846FFF7B3FF07492846FFF7F2
:10211000FDFE06E005492846FFF7DAFF01E0002052
:10212000EAE700BF0120E7E7C8450008F0460008DD
:102130002DE9F0470446884615461E46B8F10B0FB8
:1021400009D0B8F10D0F11D0B8F10E0F21D0B8F1B0
:102150000F0F60D12CE025B932492046FFF7D6FE9B
:1021600003E031492046FFF7D1FE57E045B92F493A
:102170002046FFF7CBFE2068807C84F8220007E031
:102180002B492046FFF7C2FE2068C07C84F822005D
:1021900044E02046FFF7F8FE81212046FFF79FFE2E
:1021A00029462046FFF791FE2046FFF785FE35E0E1
:1021B0002046FFF7E9FE7779F806070E94F822002B
:1021C0003844C7B240212046FFF789FE102040EA7C
:1021D00027112046FFF783FE07F00F012046FFF787
:1021E00074FEB07940F0B0012046FFF76EFE00BFEC
:1021F00096F80490D6F800A04FEAC960010E524646
:102200002046FFF776FE681EC5B2002DF0DC2046A2
:10221000FFF752FE02E00020BDE8F08700BF01207A
:10222000FAE70000C9460008CE460008D346000879
:10223000DA46000810B50446002010BD2DE9F04133
:1022400004460D4616460023324629462046676955
:10225000B847BDE8F0812DE9F04104460D46164629
:102260002046FFF7E9FD40212046FFF7D0FD334629
:102270002A46172120462769B8472046FFF7BEFDAA
:10228000BDE8F081002180F82610704710B54D4858
:102290008078012802D100204A4988704948C078D6
:1022A000012848D148480078401C40B2464908708F
:1022B00046480078401E46490988084400B244490F
:1022C0000880414890F900004249096888420EDBC5
:1022D00040480078401E40B23B4908703B480078B7
:1022E000401E3B490988081A00B23949088036481F
:1022F00090F9000002281BDD34480078401E00EBF6
:1023000040000E303249B1F90010884210DA3248EC
:1023100000882E490978401A00B22F4908802B48BE
:102320000078401E2A490988081A00B22849088006
:1023300000202449C8702348807A012802D1002156
:10234000204881721F48C07A01282BD11E4800788E
:10235000401E40B21C4908701C480078401E1C49B1
:102360000988081A00B21A490880174890F9000035
:10237000002804DA00201449087015490880144820
:10238000B0F9000000280ADA134800880F490978DC
:10239000084400B21049088000200D49088000213F
:1023A0000848C1720D48084A92F9002050F82210DE
:1023B0000B48FEF715FD401C00B20A49088000F0EA
:1023C00041F810BDEC040020300000202600002061
:1023D0002E0000201C0000202400002034000020DB
:1023E0004C0400202A000020F0B504461546B1F93F
:1023F0000060B4F90070F01B002801DB064600E025
:1024000046429E4201DD2E4600E001263246B4F9E6
:102410000000B1F90060B04204DA2088104400B234
:1024200020800CE0B4F90000B1F90060B04204DD96
:102430002088801A00B2208001E00020F0BD012039
:10244000FCE700007CB50620264908602648FEF718
:10245000EFFA002413E0254850F82430244800788F
:10246000401E244DB5F9005004FB005082B22248B2
:10247000008881B21C48FEF76FFC601CC4B219488A
:1024800000688442E7DB02211748FEF7DBFC0020EE
:1024900017490978CDE900101848008883B2184818
:1024A000008882B21448008881B20F48FEF7B4FB5E
:1024B00001210D48FEF7C6FC0323072211490D48F0
:1024C000FFF792FF032307220F490D48FFF78CFF08
:1024D00007230F220D490948FFF786FF0248FEF740
:1024E000A8FC7CBD1C0000204C040020340000200F
:1024F00026000020220000202000002028000020CC
:102500002C000020240000202E0000202A000020A3
:10251000BF02040204050103050B1500FC0DFC0FAE
:10252000FF02A0059C11BE20085B633FFF3F032113
:102530000D5B633FA1D27F4FA1D4B30122115B6336
:102540003F54A292A8242A894AA2E73F03231A5B98
:10255000633F97129544341888242A894A221A0C1A
:1025600044129544CF210024225B633F6134381824
:102570002912A248912237080E8283E02097104545
:102580008A1409D16018CD830125255B633F9548E6
:10259000A2C86414118D221252245492A4501951CD
:1025A0002914A18822235164328A8848CF02261C2C
:1025B0005B633F939D242689497289A052945144BC
:1025C0005C648C34A24542B4D133270C5B633F5A20
:1025D00069A8CCF35F0228115B633F5AA84C2A9389
:1025E0007E1A9546EDC90029125B633FD4342A8DCB
:1025F0002A7D995426857A4A002A165B633FAF24C8
:102600002A894E3618680603994EA292E839042B9F
:10261000115B633FEF9466838166309029ED390545
:102620002C0B5B633FFFA543651E0D2D0E5B633FC7
:10263000BF1B0C3483819E4F012E0A5B633FFFA5B5
:102640007B36002F155B633F5E29540A9542A550E7
:1026500029540A9542A59E16301D5B633F9B414C51
:10266000A20A856C441A9146A41169441A91A84A99
:10267000221BE4990031115B633F2BE1DD20A69022
:102680004594FE9E090032165B633F93C148B31127
:10269000290DBDACCA0C069AC140CF0033155B634F
:1026A0003F93814A23B234D44D2D35228DD540CF6E
:1026B0000434195B633F33E1DD20979029541255B0
:1026C00046A4110D0642A53D0B0035175B633F93F1
:1026D000C16AB08A960E6419A9D246A4B11AE899C3
:1026E0000036195B633FA39D5029542A5613918DE0
:1026F0004823D2884C64833C130037165B633F8BBE
:10270000C14033186852CAA432A94C1A2AED1901E3
:10271000381D5B633F9B414C22B2116936A9456E5F
:10272000904BAC321B914664221BE49900391A5B32
:10273000633F9B414C22B21169441A91C96AA114AA
:102740002A85B2419E0D003A0D5B633F9F2BED2918
:1027500094F66C003B0E5B633F9F2BED299486CA79
:102760003C1A3C0E5B633F3749A197524FF32C0054
:102770003D145B633FEF0703CD60A0870E069AC14F
:1027800040CF1B003E0D5B633FEBA82F855EE699B3
:10279000013F145B633FD940A511592A93424B7BFB
:1027A0000AA59E0D0040225B633FEB814A632589A9
:1027B0000C129184452461114958441216918842A3
:1027C00023D5A8067A2600411D5B633F23A57237F7
:1027D000C8257411954495510D06199126A589298E
:1027E000647A7200421C5B633F8BC14A23B2116959
:1027F000441AA3C14A23B21169441AA3C19E090015
:1028000043155B633FA38148231265947E2A0A69BE
:1028100064833C0B00441D5B633F8B814C23D28857
:102820006C441A9146A41169441A91C648231AE8C7
:10283000D900451A5B633F8BC14023D2A8324A9B23
:10284000D460A54929AD3222CD60A06746165B63EE
:102850003F93C14023D2A8324A9BD460A54929BDE9
:102860006705471A5B633FA38148231265944E06B0
:10287000199146A411D98834B2819E01481F5B6327
:102880003F0B9146A41169441A9146A4190C3422B5
:102890008D4823D28834228D48CF00490E5B633F98
:1028A00093C14EE97F37D8B3004A135B633FAB4116
:1028B00050E98F34228D48A31AE899004B1D5B63C1
:1028C0003F0B914614D288242A494C211BC8162A52
:1028D000894A23D2886C447A064C0F5B633F0BA570
:1028E000FF5546A4190CF40C4D215B633F7D4CA2AF
:1028F0009288269BC94124A14848128384246212ED
:1029000031894962929824A6674E215B633F0B553B
:1029100066941965129A0A4D8924139164328A4C7F
:102920004691096D429B9426A5674F1B5B633F9BB5
:102930009946A4B192A8242A894AA292A8242A8D51
:102940009146B6670350165B633F8BC14A23B211B1
:1029500069441A91C668B0527ACF0C511F5B633F2D
:102960009B9946A4B192A8242A894AA292A8242A13
:10297000CD202192CC06D1EC1E07521C5B633F8B0D
:10298000C14A23B21169441AA3C14A2193A8242A37
:102990008DC846B4270753175B633F9BC128A451DA
:1029A00065940F92979A9446141AEC990054125B0E
:1029B000633FFDE02021B1C868524AFF3D1B00552E
:1029C0001E5B633F0B9146A41169441A9146A41102
:1029D00069441A9146A41199C806792600561B5BD2
:1029E000633FBD4C21CBA832228D28A54949549282
:1029F0009C2237C82DEDD90057215B633FBD2C22A7
:102A00008BC8222611938849C424A24828328B916E
:102A100046A41169441A3D0B00581B5B633F0B91A0
:102A2000469492A82439456EA9DC25741195441565
:102A3000D288F40C59155B633FBD4CA2CA886C5216
:102A400012992237082A7DCF065A195B633F8BC142
:102A50004023D2849442A5D052A81465449AC14020
:102A6000CF005B115B633F76901BE494FE2F07B9A8
:102A7000419E0C5C155B633F5029554A9552A55405
:102A800029554A9552A59E085D115B633F76901BC0
:102A900024FDBF1BE4067932005E105B633FA1702A
:102AA0001093886C6279FE25005F0E5B633FFFEB3D
:102AB000C1403318E88900600C5B633F56692ACD3A
:102AC000F31F0261165B633FAF062B8DD26A30D2D3
:102AD0001869441ACD6890D033621A5B633F95D26F
:102AE0008BD5446423D28834228D4823D24C448A27
:102AF0003D130063135B633FCF062A8D5546E955AE
:102B000048A31AE85900641A5B633FADD2D542244A
:102B1000D98834228D4823D288342293D542CF00DD
:102B200065165B633FCF062A8D9146A4190C344A83
:102B3000538D6AA0670166125B633FE5402551290A
:102B4000CD060399D2DFB30167205B633FAF068AEE
:102B50008C9146A41169540359523918A406838CE8
:102B600048A3CA8844830900681A5B633F95D28BE7
:102B7000416863A41169441A9146A41169441A91E9
:102B80009E0169105B633FA1520F1F24FDBBC19ED4
:102B900005006A115B633FA53D7AA0F43FD28834FB
:102BA000AA81086B185B633F95D2238D91262589F6
:102BB00029640B9546A411D988F40C6C0D5B633F16
:102BC000D920E9FFDD60CF026D1B5B633F6F1412FC
:102BD000C962616221B19058482C2416120B898574
:102BE000C49E1C6E195B633F8F1483D0C64823D2EA
:102BF0008834228D4823D28834223D036F185B63CA
:102C00003FCF063189C846A41169441A914664220F
:102C10001BE49900701A5B633F8F14AB89C846A40C
:102C20001169441A9146A49988142BA53B00711987
:102C30005B633FCF1622C946A41169441A9146A48A
:102C40001199AC164A2F0072105B633F8F2623C583
:102C5000203454FA3D2B0073155B633FAF06231BF2
:102C6000E54172905C6A44A2C19E050074115B63E9
:102C70003FA3A4DD60A7F427B2419E050075195B50
:102C8000633F8F6C441A9146A41169441A9146A47B
:102C9000D18C06093D0376175B633F8F541255486C
:102CA00023D2A43431854C111C4AF36C00771C5B91
:102CB000633F6F641159C4246212318928128ACC8F
:102CC00062A41169441A3D0B0078165B633F8F6C58
:102CD0004429894C915BEE1232892AA411E91979B1
:102CE000195B633F8F6C441A514A9392C81439455B
:102CF00070284D2A738ADC0C7A155B633F8F0603BC
:102D00008D51666829146E421ACD60A0677B0F5BF7
:102D1000633F7AA7F4DD70AAF4E99E0A7C0B5B633B
:102D20003F58E9FFEFE9007D0F5B633F74AAF4E9C8
:102D300070A7F4DD9E107E115B633F7493194832D7
:102D4000918126B3E77F02A0135B633FFF3496892E
:102D5000656299C1403318E88900A10C5B633FEFBD
:102D6000947A0AA5FF08A21D5B633FE7B1814AB2CE
:102D7000D12432129544258929640A4968A21AC8C7
:102D8000F29400A31A5B633FA3414C22D28894C201
:102D9000816CA0535AA63283816470CF00A4175B64
:102DA000633F8F6C0603D1602551495483D160A0E5
:102DB00011E9B903A51A5B633FBD4CA2CA886C52E6
:102DC0001299223518C86483814CE99E0D00A60D26
:102DD0005B633F58E9F7144ABFA703A71F5B633F34
:102DE000DD202651495452C3414CA292A8242A897D
:102DF0006C10945A495412D92003A80C5B633F54B9
:102E0000A292E8F9BF04A9255B633FF3416AB28946
:102E10004514838422215154A8120955222151249A
:102E2000148384249699AC06792600AA165B633F26
:102E3000DD201751CA062A896CA0470C56833DDF56
:102E400002AB165B633FEF322989482292A82432F5
:102E5000894C22CBE4B903AC0F5B633FBF1B0C343E
:102E60008381D23D7700AD0C5B633F3F1CAC067B9A
:102E7000BE05AE265B633FF3416AB2894506838493
:102E8000222151540C24898422934898240691418C
:102E9000249699AC06792600AF0E5B633FD560A0FF
:102EA000190CF4FC8F01B0135B633F761093A842BA
:102EB000A9504A221BE4F9B700B1165B633FB74A39
:102EC000B3C1403318C894F690C1403318E819B222
:102ED000125B633F761093288586C9C16AB0E76F9D
:102EE00000B3135B633F761093288552A54A221BDB
:102EF000E4F92300B40C5B633F5A29B4CCF39F027E
:102F0000B51A5B633F8F6C441A9146A41169441A49
:102F10009146A4996C14364A7700B6205B633F93C0
:102F2000C120A3B051D8286C14360AA34142A69000
:102F300029640A9942A69029F40CB70B5B633F3FC2
:102F400055DAF30900B80D5B633FFF174AA9523603
:102F50000801B90F5B633F58B81BE4124AEFF92B25
:102F600000BA175B633FDD20265149541295443661
:102F7000C84306ABC19E6F01BB165B633F8F323106
:102F8000894C2293A824228948A2CAE43905BC228C
:102F90005B633F52388BA824228D28A41149949555
:102FA00012916414496824098966A08829F54400AF
:102FB000BD205B633F52388BA824228D28A4114981
:102FC00094958A91C226251149444503D9404F035F
:102FD000BE215B633F72A7108534AE241985D142B0
:102FE0005929114946918446929068068A98524F11
:102FF00004BF125B633FEF947A0AA5A165D2C8466D
:10300000359000C01F5B6393549A472995BB412EAE
:10301000A18BA824AA8C6A30C88834294D4C21D3AE
:103020009303C11F5B639B5099872995BB412EA1D8
:103030008BA824AA8C6A30C88834294D4C21D3939C
:1030400003C2205B635B72A7D06394CADD2097D074
:103050004554125546351864449A9426A690E9C9F9
:1030600001C3225B639324355845F420A57237C809
:10307000257411954495510D06199126A589296449
:103080007A7200C4205B638F4425D1C395CADD20CA
:1030900097D04554125546351864449A9426A69004
:1030A000E9C901C5215B63D74E2153E89649E56E16
:1030B000904BE8222A892AA31A0C32224D4A135334
:1030C000C8F4E400C6235B633FA3C14A22DA8476D6
:1030D000835C42124A0C340A4966208BA8249A4425
:1030E00046A2C80CF6E400C7165B633FA3814823E1
:1030F0001265947E2A0A69648360D46E03C81D5BDE
:103100006393549A870C061A91469551DAA4062BBC
:103110004D4A6995116906033D03C91D5B639B50C8
:1031200099C70C061A91469551DAA4062B4D4A69A7
:1031300095116906033D03CA1E5B635772A7D0232E
:1031400006038D48A3CA286D52839526A5B4CA8864
:103150003483819E01CB1E5B638F4425D1630703BB
:103160008D48A3CA286D52839526A5B4CA88348396
:10317000819E01CC115B6393549AC70C764AFFBBC6
:10318000C19E0500CD115B639B5099070D764AFFE8
:10319000BBC19E0500CE115B635B72A7D023063BCB
:1031A000A5FFDD60CF02CF115B638F4425D183077C
:1031B0003BA5FFDD60CF02D01F5B633F8B814C23BB
:1031C000D2886C44928144329068441A9146A4316A
:1031D000D288067A3600D1265B639324355845F4AD
:1031E000085566941965129A0A4D89241391643220
:1031F0008A4C4691096D429B9426A567D21E5B635B
:103200008F549A47CD34228D9544255149541295B7
:10321000442551698C34B23D1B00D31E5B639B5027
:103220009947CD34228D9544255149541295442512
:1032300051698C34B23D1B00D41F5B635772A7D019
:1032400063661A91C64AA292A8242A894AA292A821
:1032500034461AD99E0D00D5205B6393243558451A
:10326000F4989946A4B192A8242A894AA292A82443
:103270002A8D9146B66703D61F5B638F4425D1A381
:10328000671A91C64AA292A8242A894AA292A8340F
:10329000461AD99E0D00D7145B633F8F52218D4A89
:1032A000A11BEE142A8D2895E710D8225B633F6D91
:1032B0006C11D288343609892621B1904822161221
:1032C0008B8C449171A4112566795A00D9205B63D7
:1032D00093549A878834228D4823D28834228D488B
:1032E00023D28834228DC84436C83301DA205B6388
:1032F0009B5099C78834228D4823D28834228D4828
:1033000023D28834228DC84436C83301DB205B6366
:103310005B72A7D08B34228D4823D28834228D480B
:1033200023D28834228DC84436C83301DC215B6344
:103330008F4425D163451A9146A41169441A9146D8
:10334000A41169441A914664221BE49900DD185BBC
:10335000639B509987C824AA8CC82625912972831B
:10336000A0D2F76C00DE165B633F0BA5E560A511EC
:10337000D98834228DD160A5B46706DF225B633F14
:10338000D92026514954129542A6C829648A9564C9
:10339000A4D98834228D22A2510CF22C00E01A5BB1
:1033A000633F562995E631839546693518698C3413
:1033B000228D663448E819E11A5B633F5A2954E6C6
:1033C00041839546693518698C34228D663448E806
:1033D00019E21A5B633F3AB953E8C18395466935F0
:1033E00018698C34228D663448E819E31C5B633F0E
:1033F0009D24355845F490C14AA3B41A8C34461A1A
:103400009146331A24F40CE41A5B633F994425D1A6
:1034100083072B8DD26A30D21869441ACD6890D0B8
:1034200033E51E5B633F62A79065620ADD1E32587A
:103430006994568391C64823D2684683849E01E6E8
:103440001A5B633F8F261B854425514924830B89D2
:103450004AA292A8240BC93D03E7155B633FCF0640
:103460002A8D5546E95548A31A08A3761B00E81A89
:103470005B633F562995E6410395C64823D20C0667
:103480001AA5A94635D0B300E91A5B633F5A2954FF
:10349000E6510395C64823D20C061AA5A94635D095
:1034A000B300EA1A5B633F3AB953E8D10395C648C3
:1034B00023D20C061AA5A94635D0B300EB1A5B63DC
:1034C0003F994425D1A3072A8D9146A4190C344A6B
:1034D000538D6AA06701EC115B633F562995E63175
:1034E00083A47F37D8B300ED115B633F5A2954E6BC
:1034F0004183A47F37D8B300EE115B633F38B953E3
:10350000E8D183A47F37D8B300EF115B633F9944C0
:1035100025D1830749FF6EB06701F01E5B633F99B9
:1035200042B753486503956423D28834228D4823DB
:10353000D2884C64833C1300F11F5B633F9D2435AC
:103540005845F408C520B431D28834228D4823D29E
:103550008834228D48CF00F21C5B633F562995E6E4
:10356000418398446423D28834228D482332910DBC
:10357000F24C00F31C5B633F5A2954E65183984494
:103580006423D28834228D482332910DF24C00F40A
:103590001C5B633F3AB953E8D18398446423D288D3
:1035A00034228D482332910DF24C00F51E5B633FAF
:1035B0009D24355845F498414C22B21169441A9122
:1035C00046A41199C806792600F61C5B633F99440E
:1035D00025D1A3073189C846A41169441A914664CC
:1035E000221BE49900F7135B633FB74A7BC860A0D6
:1035F000190CF410A53D7300F81F5B633FF7A98118
:103600004A22D26C24838C24A151443483886623BB
:1036100092A806AA3C2D00F91D5B633F562995E64A
:1036200021228D4823D28834228D4823D288349A8F
:10363000D120A167FA1D5B633F5A2954E631228DE0
:103640004823D28834228D4823D288349AD120A1AD
:1036500067FB1D5B633F3AB953E8B1228D4823D223
:103660008834228D4823D288349AD120A167FC1E49
:103670005B633F994425D163451A9146A41169447F
:103680001A9146A4116934A34142CF00FD1E5B6329
:103690003F5A2954E631228D48234A695212992211
:1036A000A7080EA549654E919B01FE1B5B633F95E4
:1036B000D28BD5446423D28834228D4823D24C4403
:1036C0008A95D21D00FF1E5B633F994425D1634557
:1036D0001A914694D2A42432454E111C4A93CA9C96
:1036E00022370300000004FFFF0000BF02030204B2
:1036F00005010305091100FD0BFD0CFF024704BD88
:103700000E75200919279FFFFF6700210C19279FBD
:103710009BEEEF245DE704220F19279FAC888AA84F
:103720008851CEFF4700231819279FB7A2A20D4347
:10373000B46C8AA868CB340C992266391700241D12
:1037400019279F2547E2615212498922251EE2214D
:103750004EA48AA424D230E7480E03251919279FC6
:103760008B982891A224925254648B982891A22479
:103770009252D439261719279F93ACA44AAAC4F2AF
:10378000AA2891A24436691B129D19270C19279F5C
:103790004537EB39FF8F00281119279F49B6CBBA5F
:1037A0007744D7111DD1C900291119279FAC233A9D
:1037B000A2EB88EE5997ED4C002A1219279FDFB330
:1037C0005051C761085745CC72DE002B0F19279F57
:1037D000EF8EC3A00C83A8DB79042C0B19279FFF65
:1037E000AFBA59CF092D0E19279FFF360CD130E4FF
:1037F000FC0B002E0B19279FFFAFBA9D13002F1152
:1038000019279F4D97755997755997753D670430DE
:103810001519279FD3AA68264DD2244DD2244DD204
:103820002CEACE09310E19279FA3BC0EA1A2FB3BA7
:103830001700321319279FCBA04993A6CBDEF36163
:10384000888621E700331319279FCBA0D9CDEA90B2
:1038500023BA49D3069D0B00341319279FA37C4D2F
:1038600044458C34491B8658B77301351719279F77
:10387000CB200E628EE4C890463AA24BA1641C7223
:103880004E00361519279FD310CABA659B6C922635
:103890006992A60D3A1700371219279F7D18A26169
:1038A00088D23CD773B36EE706381619279FCBA092
:1038B000993449B3A8ABA2993449D3069D0B00397A
:1038C0001519279FCBA0993449933449DA16DD2C7A
:1038D0000E3927003A0C19279F7FD4ED24DDCE093D
:1038E0003B0D19279F7FD4ED24DDACE7043C101974
:1038F000279F77D9BB8EE8888EE888CE013D1219C4
:10390000279F7F19866818727018A261C8F9083E4F
:103910001019279F371DD1111DD1115DF6CE113F12
:103920001119279FCB30898AA8CBEE3A49D73901A4
:10393000401919279FDBB86861A40C51624A4C8971
:103940004919B21C59D49D0B00411419279F5BAE35
:10395000CF6BA24662A40D5B28858AA87342171913
:10396000279F7DD84C9AA4495A366C264DD2244DB7
:103970001A762E00431119279FD3A049C648F71D78
:1039800091C421E702441719279F7D1025CDA44932
:103990009AA4499AA4499A641B744E0045171927A2
:1039A0009F7D18224D12235D0A07510A7531D2A45A
:1039B00061C839461419279FCB30449A2446BA145B
:1039C0000EA214EAEE1C01471419279FD3A049C682
:1039D00048374D9AA4499A491C740E481819279FD4
:1039E0005D933449933449938621D2244DD2244D9A
:1039F000D2740E490C19279FCBB0EAFE75D8394A0C
:103A00001019279FDB10EB7E9334491C724E004B3C
:103A10001719279F5D93B44CD2A450490771102504
:103A20004DD24C9ACE014C0D19279FDD7F8C346905
:103A300018720E4D1819279F5D933469999669186D
:103A4000A2C494984229944229D4394E1919279F27
:103A50005D8CB6688B12A92295942852A26CCAA6D6
:103A6000504A730E4F1819279FCBA09934499334AD
:103A700049933449933449D3069D0B0050121927BA
:103A80009F7DD84C9AA4499A346CBA77AE00511BEA
:103A900019279FCBA099344993344993344993868D
:103AA0004452126DD075648700521619279F7DD835
:103AB0004C9AA4499A346C8A28699266D2740E533F
:103AC0001719279FCB30699218E9C83EE43A22853E
:103AD00092260D3B1700540F19279F7D1814974805
:103AE0000A757FE704551819279F5D93344993346D
:103AF0004993344993344993346DD0B9005615191C
:103B0000279F5D54C448CC244D0AA55449E75DCF96
:103B1000B901571919279F5D4DD4444DA48A5451BA
:103B2000966418246593344993740E581419279F8A
:103B30005D933453A8C47B3E2762A499349D0359F6
:103B40001119279F5D54C44CCBA4544977DF390128
:103B50005A1419279F7D18224DCA74D92EEB5AA4E6
:103B600049C390735B1019279F3C8883A8FBF741DA
:103B70001C7432005C1519279F9A23BA8EE83AA26A
:103B8000EB88AE23BA8EE83A155D0F19279F3C8863
:103B900083EE3F0EE2A093015E0D19279F255F156E
:103BA000CD94E6FC3F5F0D19279FFF3F0F43340C78
:103BB0003915600D19279F45B7233A92F3FF02612B
:103BC0001319279FDF0751D2B561D2244D92B64514
:103BD000E700621319279FDDCB36D9244DD2244D3F
:103BE0009A2C3B1700631019279FBF0CA1647747DD
:103BF0002471C8B900641519279FAB6E5B2469D284
:103C0000244DD2244D92B645E700651419279FBF75
:103C10000CA164938621D2754412879C0B00661018
:103C200019279FDB102AA2AE0E43A8FBCE0D671802
:103C300019279FDF872492269B240EA18E0CE23049
:103C40008991A60D1200681319279FDDCB36D92460
:103C50004DD2244DD2244DE700690D19279F45D739
:103C6000D976BF0E3B076A1019279F49D79986DC82
:103C7000DF244D12870C6B1319279FDD9BA465521F
:103C8000A888832869264DE7006C0B19279FD3EE7F
:103C9000BF0E3B076D1919279F9F93441B86484908
:103CA0002425919444521249492425D1396E13197F
:103CB000279F9F956DB2499AA4499AA4499ACE012B
:103CC0006F1319279FDF07CDA4499AA4499AA469C5
:103CD00083CE05701319279F9F956DB2499AA44909
:103CE0009A345936DD0C711419279FDF17499A341D
:103CF0004993344993A46DD15D00720E19279F9F9B
:103D0000976DD1B44CF7CE11731219279FDF07CDF1
:103D1000B40FF98E489A36E85C00740E19279F4755
:103D20005D1D56DD1775E702751319279F9F3549ED
:103D300093344993344993A46DD139761219279F4E
:103D40009F4545CCA4504A9574D7736E00771419DB
:103D5000279F9FD5444DA48A54519668D8244DD2AC
:103D600039781319279F9F3569D2945847E44493B3
:103D7000264DE700791219279F9F3549338552AAAE
:103D8000A4BB3D55D2157A1219279F9F872192A671
:103D90004C768B266918720E7B1019279F69D59D6A
:103DA000ED888EE8EEC84E057C0A19279F45F7FF7F
:103DB000CE007D1019279FBC23BA3BA223B2DD752C
:103DC00067017E1019279FAC4543541AA24CE7FFA8
:103DD0001B00A01019279FFF4F699446C3100D4385
:103DE0004E05A10C19279F3FE93A49F73700A21564
:103DF00019279FDFC2215426295444251D62491BDF
:103E0000C49C0DA31619279FD3104A9AA4E9F2A0C7
:103E1000EA7A180D43340C3907A41119279F9F35EE
:103E20006D1015511107CDCE4700A51619279F5DBE
:103E300054C44CCBA454C98641148741D4ED9C0092
:103E4000A60C19279F45F7CE59F7CE00A7191927B9
:103E50009FD3102AA28EE8AB222AA2222AEAAE23FE
:103E6000A2220E1900A80B19279FAC888ACEFF3F0B
:103E7000A91619279FD3B84C69A25C3C2AA262B943
:103E80002869B48C3B03AA1319279FD39023E2A07F
:103E900049E2A0A3C336ECFC0CAB1019279F7F535B
:103EA000344553544555743E02AC0E19279FFF36D6
:103EB0000CD130E4EE3C01AD0C19279FFF3888830C
:103EC000CE3F01AE1719279FD3B84C69322C8B5FB8
:103ED0008648F1322469B48C3B03AF0C19279F3C10
:103EE0006CC3CEFF9F01B00E19279FD3AA8859A893
:103EF000A83BFF07B11419279F57DD380CCA30883B
:103F0000BA71189461D09901B21119279F3E849219
:103F100096C9AA3C6CC3CE7F03B31119279F3E8478
:103F200092AEEE88268943CE7F04B40B19279F49B1
:103F3000B6E7FC7F06B51519279F9F35499334498D
:103F40009334499396495122DD0CB61A19279FCB19
:103F5000302989A4249292484AA22D6AA2266AA2F4
:103F6000266AA273B70B19279FFFACDBF90B00B8C9
:103F70000D19279FFF7FD275441C3200B90C1927F9
:103F80009F455E13DD3BFF15BA1319279FD3104AD7
:103F90009AA449E290C3C336ECFC0CBB0F19279FCF
:103FA0007FB12AAAA2299AA2F319BC1919279F2C1A
:103FB0006F9226D91451912DE2A029939248CA20DC
:103FC000EB5400BD1819279F2C6F9226D9145191DC
:103FD000E5415C24A75019C4412702BE1A19279F46
:103FE000BC2A36491C2265C806D9220E9A32298974
:103FF000A40CB24E05BF1019279F3FE93A4997DD3F
:104000004545948605C01619276747745AAECF6B8D
:10401000A24662A40D5B28858AA873C1161927736E
:10402000D569B93EAF891A8991366CA1142AA2CEFE
:1040300001C21719274F1ED228A7E8F39AA8911892
:1040400069C3164AA122EA1CC31719274FD1929DB2
:1040500092EBF39AA8911869C3164AA122EA1CC4EC
:104060001719274B11159D92EBF39AA8911869C364
:10407000164AA122EA1CC51719276F554445DDF3DE
:10408000794DD4488CB4610BA55011750EC61A1920
:10409000279FDB204AD994AD899225439628D120C9
:1040A00046521249079D19C71319279FD3A049C625
:1040B00048F71D91C421CE115904C81919276B471F
:1040C000747818224D12235D0A07510A7531D2A463
:1040D00061C839C919192773D5F1618834498C74BD
:1040E000291C4429D4C548938621E700CA191927F9
:1040F000335F151D1D86489374291C4429D4C54877
:10410000938621E700CB1A19274B11151D1D8648F0
:1041100093C44897C24194425D8C346918720ECCA6
:104120000E19276B47747C5875FF3AEC1CCD0D199E
:104130002777D5F161D5FDEBB073CE101927531E4B
:10414000D228878755F7D761E700CF0F19274B1182
:10415000151D1E56DDBF0E3B07D01819279F7D1079
:1041600025CDA42983A20C8AA4499AA449B641E783
:1041700004D11C19274FD1921D15A32DDAA244AAF0
:104180004825258A94289BB22994D29C03D21919D8
:10419000276B47747CD04C9AA4499AA4499AA449A5
:1041A0009AA46983CE05D319192777D5F1413369CC
:1041B00092266992266992266992A60D3A1700D432
:1041C000191927335F151D1E3493266992266992AB
:1041D000266992A60D3A1700D51A19274FD1921DBC
:1041E0001E34932669922669922669922669DAA07E
:1041F0007301D61A19274B11151D1E349326699287
:104200002669922669922669DAA07301D7121927C6
:104210009FDFC34C1287581E42490B739E00D81A69
:1042200019279F311B349334499392484A22298994
:104230003449934D1BB49C11D91A19276B477458F4
:1042400093344993344993344993344993346DD02A
:10425000B900DA19192777D5614DD2244DD2244DF2
:10426000D2244DD2244DD2B441E702DB19192733B1
:104270005F151DD5244DD2244DD2244DD2244DD2CC
:10428000B441E702DC1B19274B11151DD5244DD273
:10429000244DD2244DD2244DD2244D1B742E00DD4A
:1042A00012192777D5615111332D935225DD7DE702
:1042B00004DE1119279FDD7DD84C9AA449C3A6DBE3
:1042C000B902DF1819279FCB104A9AA4499A222ACB
:1042D0009B49933449492465E702E01619279FAEAC
:1042E000233A92E38328E9DA3069922649DBA27304
:1042F000E11519279F49D673CA204ABA364C9AA4A9
:1043000049D2B6E81CE21719279F451ED228870715
:1043100051D2B561D2244D92B645E700E317192773
:104320009F1E858318E5F8204ABA364C9AA449D2D4
:10433000B6E81CE41519279F8B51D1E14194746DA7
:1043400098344993A46DD139E51719271F5D15518C
:1043500051777C10255D1B264DD224695B740EE6D7
:104360001419279FDF9549312AD230244645544CF1
:10437000CACE01E71219279FBF0CA16477472471A9
:104380008873441601E81719279FAE233A92538683
:1043900050B249C310E93A228943CE05E9161927DC
:1043A0009F49D673D2104A366918225D472471C8D6
:1043B000B900EA1719279F451ED228C78750B2496E
:1043C000C310E93A228943CE05EB1619279F8B517A
:1043D000D1F121946CD23044BA8E48E2907301EC52
:1043E0000F19279FAE233A925376BF0E3B07ED0E6F
:1043F00019279F49D673D2EED761E700EE0F192730
:104400009F451ED228C777BF0E3B07EF0E19279F87
:104410008B51D1F1DDAFC3CE01F01519279F5D514E
:1044200057451E424533699226691675E704F11710
:1044300019279F1E858318E5B0B24D36499334493C
:10444000933449D339F21719279FAC233A92530674
:10445000CDA4499AA4499AA46983CE05F3161927D5
:104460009F49D673CAA099344993344993346DD087
:10447000B900F41719279F255F151D1E349326696F
:1044800092266992A60D3A1700F51819279F1E85E6
:104490008318E5F8A099344993344993346DD0B921
:1044A00000F61619279F8B51D1E141336992266995
:1044B000922669DAA07301F71119279F57DD0E0FB5
:1044C00083320C3AACDB3901F81619279FDFB24171
:1044D00033499392484A224D366DD0724600F917FF
:1044E00019279FAC233A92E39AA4499AA4499AA423
:1044F00049D2B6E81CFA1619279F49D6735C933443
:1045000049933449933449DA169D03FB1719279FC1
:10451000255F151DD5244DD2244DD2244D92B6458C
:10452000E700FC1619279F8B51D1514DD2244DD253
:10453000244DD224695B740EFD1519279F49D6734B
:104540005C93345328A54ABADB53255D01FE131949
:10455000279FDDCB36D9244DD2244D9A2C9B6E0655
:10456000FF1519279F8B51D1514DD24CA1942AE9A7
:104570006E4F95740500000004FFFF00000000006E
:104580000F1C00085F1C00087F1200081B1C00089D
:104590007F1C0008A3120008371C00089F1C00089D
:1045A000E7120008431C0008DB1C00083D1300084C
:1045B0000F1C00085F1C0008431200080F1C0008B5
:1045C0005F1C00088D1300081815AE15D516801550
:1045D000A8163F15D316001540158D161415201674
:1045E0000015A115C815DA1612158116CF15D916A2
:1045F000F115DB1640152E15A415A619FF1815AEDA
:1046000015D5168015A8163F15D316001540158D23
:1046100016141520160015A115C815DA16121581E5
:1046200016EF15D916A115DB1600152E15A415A623
:1046300019FF1815AE15D5168015A8163F15D316F7
:10464000001540158D16141520160015A115C81556
:10465000DA1602158116CF15D916F115DB1640159D
:104660002E15A415A619FF1815AE15A415D51650AC
:1046700015A8163F15D31600154015AD168B15D984
:10468000162215DB16351532158116FF15A615DA1B
:10469000161219FF1815AE15D5168015A8163F1558
:1046A000D316001540158D16141520160015A115EA
:1046B000C015DA1612158116CF15D916F115DB16AD
:1046C00040152E15A415A619FF1815AF19FF1815BA
:1046D000AE19FF1815A115C819FF1815A015C01996
:1046E000FF1815A115C019FF1815A015C819FF004E
:1046F0000001140A6464323200127A000004289621
:1047000010080000800040000001140A6464323286
:1047100000093D00000428961008020280004000B5
:1047200054696D6500000000547970650000000058
:1047300056616C7565000000526564756374000015
:104740005365740059617700684700080000002035
:104750004C00000020080008B44700084C0000206E
:10476000B40800003008000800A24A04000000005D
:104770000000000001020304060708090000000011
:10478000000000000000000000000E000E0000000D
:1047900000000000000000000000000028470008A2
:1047A0003047000844470008204700083847000801
:0447B0004047000876
:04000005080000ED02
:00000001FF
